:020000040800F2
:1000000060060020190200082102000823020008EF
:10001000250200082702000829020008000000004D
:100020000000000000000000000000002B0200089B
:100030002D020008000000002F0200083102000815
:1000400033020008330200083302000833020008BC
:1000500033020008330200083302000833020008AC
:10006000330200083302000833020008330200089C
:10007000330200083302000833020008330200088C
:1000800033020008330200083302000800000000B9
:100090000000000000000000000000003302000823
:1000A000330200083302000833020008330200085C
:1000B000330200083302000833020008330200084C
:1000C000330200083302000833020008330200083C
:1000D0003302000833020008330200080000000069
:1000E0003302000833020008330200080000000059
:1000F00000000000000000000000000033020008C3
:100100000000000033020008330200083302000838
:1001100000000000000000000000000000000000DF
:1001200033020008330200083302000833020008DB
:100130003302000800000000000000000000000082
:100140000000000000000000000000003302000872
:1001500033020008330200083302000833020008AB
:100160003302000833020008000000000000000015
:10017000000000000000000000000000000000007F
:100180000000000033020008000000000000000032
:100190003302000800F002F800F02EF80AA090E800
:1001A000000C82448344AAF10107DA4501D100F032
:1001B00023F8AFF2090EBAE80F0013F0010F18BFD1
:1001C000FB1A43F0010318479C020000AC02000038
:1001D0000023002400250026103A28BF78C1FBD850
:1001E000520728BF30C148BF0B6070471FB500F0F1
:1001F0002CF91FBD10B510BD00F031F81146FFF706
:10020000F5FF00F001F900F04FF803B4FFF7F2FF3B
:1002100003BC00F057F80000094880470948004730
:10022000FEE7FEE7FEE7FEE7FEE7FEE7FEE7FEE7A6
:10023000FEE7FEE704480549054A064B7047000003
:10024000F50300089501000860000020600600200A
:1002500060020020600200207047704770477546BA
:1002600000F02CF8AE4605006946534620F0070022
:10027000854618B020B5FFF7DDFFBDE820404FF000
:1002800000064FF000074FF000084FF0000BAC469F
:10029000ACE8C009ACE8C009ACE8C009ACE8C009EA
:1002A00021F007018D46704710B50446AFF300807A
:1002B0002046BDE81040FFF7A8BF00000048704787
:1002C0000000002001491820ABBEFEE72600020016
:1002D0007047000081B00090FFE70098411E009138
:1002E00008B1FFE7F9E701B07047000043F63001BD
:1002F000C4F20201086840F0010008600021C4F265
:100300000201086840F4806008600421C4F2020120
:10031000086808600821C4F2020108680860704794
:1003200043F60001C4F20201086840F4803008601E
:10033000FFE743F60000C4F20200006880030028D3
:1003400001D4FFE7F5E743F64001C4F20201086873
:1003500040F08050086047F20001C4F200010868D4
:1003600040F40040086043F60041C4F2020140F24C
:100370000270086043F60801C4F20201086820F028
:1003800010000860086840F480500860086820F495
:100390000050086043F60401C4F2020141F2035028
:1003A000C0F24000086043F60001C4F20201086890
:1003B00040F080700860FFE743F60000C4F20200DE
:1003C00000688001002801D4FFE7F5E743F6080143
:1003D000C4F20201086840F002000860FFE743F63B
:1003E0000800C4F2020000680007002801D4FFE7FB
:1003F000F5E770474EF68851CEF20001086840F4E8
:10040000700008607047000080B584B00020039041
:10041000FFF786FFFFF76AFFFFE71821C4F202012A
:100420000191086840F0200008604CF28030C0F272
:10043000C9100290FFF74EFF019A0298116841F42B
:1004400000111160FFF746FFE7E7F1EE100A4FF6E3
:10045000FF71C0F2C03120EA010040F04070E1EECF
:10046000100A7047740400080000002060060000B5
:04047000D0010008AF
:0400000508000219D4
:00000001FF
